{
  "contractName": "TechpropheciesNFTFactory",
  "abi": [
    {
      "inputs": [],
      "stateMutability": "nonpayable",
      "type": "constructor"
    },
    {
      "anonymous": false,
      "inputs": [
        {
          "indexed": true,
          "internalType": "address",
          "name": "owner",
          "type": "address"
        },
        {
          "indexed": true,
          "internalType": "address",
          "name": "approved",
          "type": "address"
        },
        {
          "indexed": true,
          "internalType": "uint256",
          "name": "tokenId",
          "type": "uint256"
        }
      ],
      "name": "Approval",
      "type": "event"
    },
    {
      "anonymous": false,
      "inputs": [
        {
          "indexed": true,
          "internalType": "address",
          "name": "owner",
          "type": "address"
        },
        {
          "indexed": true,
          "internalType": "address",
          "name": "operator",
          "type": "address"
        },
        {
          "indexed": false,
          "internalType": "bool",
          "name": "approved",
          "type": "bool"
        }
      ],
      "name": "ApprovalForAll",
      "type": "event"
    },
    {
      "anonymous": false,
      "inputs": [
        {
          "indexed": true,
          "internalType": "address",
          "name": "previousOwner",
          "type": "address"
        },
        {
          "indexed": true,
          "internalType": "address",
          "name": "newOwner",
          "type": "address"
        }
      ],
      "name": "OwnershipTransferred",
      "type": "event"
    },
    {
      "anonymous": false,
      "inputs": [
        {
          "indexed": true,
          "internalType": "address",
          "name": "from",
          "type": "address"
        },
        {
          "indexed": true,
          "internalType": "address",
          "name": "to",
          "type": "address"
        },
        {
          "indexed": true,
          "internalType": "uint256",
          "name": "tokenId",
          "type": "uint256"
        }
      ],
      "name": "Transfer",
      "type": "event"
    },
    {
      "inputs": [
        {
          "internalType": "address",
          "name": "to",
          "type": "address"
        },
        {
          "internalType": "uint256",
          "name": "tokenId",
          "type": "uint256"
        }
      ],
      "name": "approve",
      "outputs": [],
      "stateMutability": "nonpayable",
      "type": "function"
    },
    {
      "inputs": [
        {
          "internalType": "address",
          "name": "owner",
          "type": "address"
        }
      ],
      "name": "balanceOf",
      "outputs": [
        {
          "internalType": "uint256",
          "name": "",
          "type": "uint256"
        }
      ],
      "stateMutability": "view",
      "type": "function",
      "constant": true
    },
    {
      "inputs": [
        {
          "internalType": "address",
          "name": "",
          "type": "address"
        }
      ],
      "name": "couponOwner",
      "outputs": [
        {
          "internalType": "bool",
          "name": "",
          "type": "bool"
        }
      ],
      "stateMutability": "view",
      "type": "function",
      "constant": true
    },
    {
      "inputs": [
        {
          "internalType": "uint256",
          "name": "tokenId",
          "type": "uint256"
        }
      ],
      "name": "getApproved",
      "outputs": [
        {
          "internalType": "address",
          "name": "",
          "type": "address"
        }
      ],
      "stateMutability": "view",
      "type": "function",
      "constant": true
    },
    {
      "inputs": [
        {
          "internalType": "address",
          "name": "owner",
          "type": "address"
        },
        {
          "internalType": "address",
          "name": "operator",
          "type": "address"
        }
      ],
      "name": "isApprovedForAll",
      "outputs": [
        {
          "internalType": "bool",
          "name": "",
          "type": "bool"
        }
      ],
      "stateMutability": "view",
      "type": "function",
      "constant": true
    },
    {
      "inputs": [],
      "name": "listingPrice",
      "outputs": [
        {
          "internalType": "uint128",
          "name": "",
          "type": "uint128"
        }
      ],
      "stateMutability": "view",
      "type": "function",
      "constant": true
    },
    {
      "inputs": [],
      "name": "name",
      "outputs": [
        {
          "internalType": "string",
          "name": "",
          "type": "string"
        }
      ],
      "stateMutability": "view",
      "type": "function",
      "constant": true
    },
    {
      "inputs": [],
      "name": "owner",
      "outputs": [
        {
          "internalType": "address",
          "name": "",
          "type": "address"
        }
      ],
      "stateMutability": "view",
      "type": "function",
      "constant": true
    },
    {
      "inputs": [
        {
          "internalType": "uint256",
          "name": "tokenId",
          "type": "uint256"
        }
      ],
      "name": "ownerOf",
      "outputs": [
        {
          "internalType": "address",
          "name": "",
          "type": "address"
        }
      ],
      "stateMutability": "view",
      "type": "function",
      "constant": true
    },
    {
      "inputs": [],
      "name": "renounceOwnership",
      "outputs": [],
      "stateMutability": "nonpayable",
      "type": "function"
    },
    {
      "inputs": [
        {
          "internalType": "address",
          "name": "from",
          "type": "address"
        },
        {
          "internalType": "address",
          "name": "to",
          "type": "address"
        },
        {
          "internalType": "uint256",
          "name": "tokenId",
          "type": "uint256"
        }
      ],
      "name": "safeTransferFrom",
      "outputs": [],
      "stateMutability": "nonpayable",
      "type": "function"
    },
    {
      "inputs": [
        {
          "internalType": "address",
          "name": "from",
          "type": "address"
        },
        {
          "internalType": "address",
          "name": "to",
          "type": "address"
        },
        {
          "internalType": "uint256",
          "name": "tokenId",
          "type": "uint256"
        },
        {
          "internalType": "bytes",
          "name": "_data",
          "type": "bytes"
        }
      ],
      "name": "safeTransferFrom",
      "outputs": [],
      "stateMutability": "nonpayable",
      "type": "function"
    },
    {
      "inputs": [
        {
          "internalType": "address",
          "name": "operator",
          "type": "address"
        },
        {
          "internalType": "bool",
          "name": "approved",
          "type": "bool"
        }
      ],
      "name": "setApprovalForAll",
      "outputs": [],
      "stateMutability": "nonpayable",
      "type": "function"
    },
    {
      "inputs": [
        {
          "internalType": "bytes4",
          "name": "interfaceId",
          "type": "bytes4"
        }
      ],
      "name": "supportsInterface",
      "outputs": [
        {
          "internalType": "bool",
          "name": "",
          "type": "bool"
        }
      ],
      "stateMutability": "view",
      "type": "function",
      "constant": true
    },
    {
      "inputs": [],
      "name": "symbol",
      "outputs": [
        {
          "internalType": "string",
          "name": "",
          "type": "string"
        }
      ],
      "stateMutability": "view",
      "type": "function",
      "constant": true
    },
    {
      "inputs": [
        {
          "internalType": "uint256",
          "name": "tokenId",
          "type": "uint256"
        }
      ],
      "name": "tokenURI",
      "outputs": [
        {
          "internalType": "string",
          "name": "",
          "type": "string"
        }
      ],
      "stateMutability": "view",
      "type": "function",
      "constant": true
    },
    {
      "inputs": [
        {
          "internalType": "address",
          "name": "from",
          "type": "address"
        },
        {
          "internalType": "address",
          "name": "to",
          "type": "address"
        },
        {
          "internalType": "uint256",
          "name": "tokenId",
          "type": "uint256"
        }
      ],
      "name": "transferFrom",
      "outputs": [],
      "stateMutability": "nonpayable",
      "type": "function"
    },
    {
      "inputs": [
        {
          "internalType": "address",
          "name": "newOwner",
          "type": "address"
        }
      ],
      "name": "transferOwnership",
      "outputs": [],
      "stateMutability": "nonpayable",
      "type": "function"
    },
    {
      "inputs": [
        {
          "internalType": "string",
          "name": "tokenURI",
          "type": "string"
        }
      ],
      "name": "createToken",
      "outputs": [],
      "stateMutability": "payable",
      "type": "function",
      "payable": true
    },
    {
      "inputs": [
        {
          "internalType": "uint128",
          "name": "_listPrice",
          "type": "uint128"
        }
      ],
      "name": "setListingPrice",
      "outputs": [],
      "stateMutability": "nonpayable",
      "type": "function"
    },
    {
      "inputs": [
        {
          "internalType": "address payable",
          "name": "_beneficiary",
          "type": "address"
        }
      ],
      "name": "setBeneficiary",
      "outputs": [],
      "stateMutability": "nonpayable",
      "type": "function"
    },
    {
      "inputs": [
        {
          "internalType": "address",
          "name": "_couponOwner",
          "type": "address"
        }
      ],
      "name": "setCouponOwner",
      "outputs": [],
      "stateMutability": "nonpayable",
      "type": "function"
    }
  ],
  "bytecode": "0x60806040523480156200001157600080fd5b506040518060400160405280600f81526020017f546563682050726f7068656369657300000000000000000000000000000000008152506040518060400160405280600281526020017f54500000000000000000000000000000000000000000000000000000000000008152508160009080519060200190620000969291906200023f565b508060019080519060200190620000af9291906200023f565b505050620000d2620000c66200017160201b60201c565b6200017960201b60201c565b33600b60006101000a81548173ffffffffffffffffffffffffffffffffffffffff021916908373ffffffffffffffffffffffffffffffffffffffff1602179055506001600a60003373ffffffffffffffffffffffffffffffffffffffff1673ffffffffffffffffffffffffffffffffffffffff16815260200190815260200160002060006101000a81548160ff02191690831515021790555062000354565b600033905090565b6000600760009054906101000a900473ffffffffffffffffffffffffffffffffffffffff16905081600760006101000a81548173ffffffffffffffffffffffffffffffffffffffff021916908373ffffffffffffffffffffffffffffffffffffffff1602179055508173ffffffffffffffffffffffffffffffffffffffff168173ffffffffffffffffffffffffffffffffffffffff167f8be0079c531659141344cd1fd0a4f28419497f9722a3daafe3b4186f6b6457e060405160405180910390a35050565b8280546200024d90620002ef565b90600052602060002090601f016020900481019282620002715760008555620002bd565b82601f106200028c57805160ff1916838001178555620002bd565b82800160010185558215620002bd579182015b82811115620002bc5782518255916020019190600101906200029f565b5b509050620002cc9190620002d0565b5090565b5b80821115620002eb576000816000905550600101620002d1565b5090565b600060028204905060018216806200030857607f821691505b602082108114156200031f576200031e62000325565b5b50919050565b7f4e487b7100000000000000000000000000000000000000000000000000000000600052602260045260246000fd5b61350e80620003646000396000f3fe6080604052600436106101355760003560e01c806370a08231116100ab578063b88d4fde1161006f578063b88d4fde14610415578063c78f19f91461043e578063c87b56dd14610469578063ca4576b7146104a6578063e985e9c5146104cf578063f2fde38b1461050c57610135565b806370a0823114610342578063715018a61461037f5780638da5cb5b1461039657806395d89b41146103c1578063a22cb465146103ec57610135565b80631c31f710116100fd5780631c31f7101461023157806323b872dd1461025a57806342842e0e1461028357806345576f94146102ac5780635dd92ba0146102c85780636352211e1461030557610135565b806301ffc9a71461013a57806306fdde0314610177578063081812fc146101a2578063095ea7b3146101df5780630f9eae7a14610208575b600080fd5b34801561014657600080fd5b50610161600480360381019061015c919061233b565b610535565b60405161016e9190612823565b60405180910390f35b34801561018357600080fd5b5061018c610617565b604051610199919061283e565b60405180910390f35b3480156101ae57600080fd5b506101c960048036038101906101c491906123f7565b6106a9565b6040516101d691906127bc565b60405180910390f35b3480156101eb57600080fd5b50610206600480360381019061020191906122ff565b61072e565b005b34801561021457600080fd5b5061022f600480360381019061022a91906123ce565b610846565b005b34801561023d57600080fd5b5061025860048036038101906102539190612194565b610882565b005b34801561026657600080fd5b50610281600480360381019061027c91906121f9565b6108c6565b005b34801561028f57600080fd5b506102aa60048036038101906102a591906121f9565b610926565b005b6102c660048036038101906102c1919061238d565b610946565b005b3480156102d457600080fd5b506102ef60048036038101906102ea919061216b565b610ae4565b6040516102fc9190612823565b60405180910390f35b34801561031157600080fd5b5061032c600480360381019061032791906123f7565b610b04565b60405161033991906127bc565b60405180910390f35b34801561034e57600080fd5b506103696004803603810190610364919061216b565b610bb6565b6040516103769190612adb565b60405180910390f35b34801561038b57600080fd5b50610394610c6e565b005b3480156103a257600080fd5b506103ab610cf6565b6040516103b891906127bc565b60405180910390f35b3480156103cd57600080fd5b506103d6610d20565b6040516103e3919061283e565b60405180910390f35b3480156103f857600080fd5b50610413600480360381019061040e91906122c3565b610db2565b005b34801561042157600080fd5b5061043c60048036038101906104379190612248565b610dc8565b005b34801561044a57600080fd5b50610453610e2a565b6040516104609190612ac0565b60405180910390f35b34801561047557600080fd5b50610490600480360381019061048b91906123f7565b610e4c565b60405161049d919061283e565b60405180910390f35b3480156104b257600080fd5b506104cd60048036038101906104c8919061216b565b610f9e565b005b3480156104db57600080fd5b506104f660048036038101906104f191906121bd565b610ff9565b6040516105039190612823565b60405180910390f35b34801561051857600080fd5b50610533600480360381019061052e919061216b565b61108d565b005b60007f80ac58cd000000000000000000000000000000000000000000000000000000007bffffffffffffffffffffffffffffffffffffffffffffffffffffffff1916827bffffffffffffffffffffffffffffffffffffffffffffffffffffffff1916148061060057507f5b5e139f000000000000000000000000000000000000000000000000000000007bffffffffffffffffffffffffffffffffffffffffffffffffffffffff1916827bffffffffffffffffffffffffffffffffffffffffffffffffffffffff1916145b80610610575061060f82611185565b5b9050919050565b60606000805461062690612d5f565b80601f016020809104026020016040519081016040528092919081815260200182805461065290612d5f565b801561069f5780601f106106745761010080835404028352916020019161069f565b820191906000526020600020905b81548152906001019060200180831161068257829003601f168201915b5050505050905090565b60006106b4826111ef565b6106f3576040517f08c379a00000000000000000000000000000000000000000000000000000000081526004016106ea90612a00565b60405180910390fd5b6004600083815260200190815260200160002060009054906101000a900473ffffffffffffffffffffffffffffffffffffffff169050919050565b600061073982610b04565b90508073ffffffffffffffffffffffffffffffffffffffff168373ffffffffffffffffffffffffffffffffffffffff1614156107aa576040517f08c379a00000000000000000000000000000000000000000000000000000000081526004016107a190612a80565b60405180910390fd5b8073ffffffffffffffffffffffffffffffffffffffff166107c961125b565b73ffffffffffffffffffffffffffffffffffffffff1614806107f857506107f7816107f261125b565b610ff9565b5b610837576040517f08c379a000000000000000000000000000000000000000000000000000000000815260040161082e90612940565b60405180910390fd5b6108418383611263565b505050565b80600960006101000a8154816fffffffffffffffffffffffffffffffff02191690836fffffffffffffffffffffffffffffffff16021790555050565b80600c60006101000a81548173ffffffffffffffffffffffffffffffffffffffff021916908373ffffffffffffffffffffffffffffffffffffffff16021790555050565b6108d76108d161125b565b8261131c565b610916576040517f08c379a000000000000000000000000000000000000000000000000000000000815260040161090d90612aa0565b60405180910390fd5b6109218383836113fa565b505050565b61094183838360405180602001604052806000815250610dc8565b505050565b60011515600a60003373ffffffffffffffffffffffffffffffffffffffff1673ffffffffffffffffffffffffffffffffffffffff16815260200190815260200160002060009054906101000a900460ff16151514156109d4576109a96008611656565b6109bc336109b7600861166c565b61167a565b6109cf6109c9600861166c565b82611848565b610ae1565b600960009054906101000a90046fffffffffffffffffffffffffffffffff166fffffffffffffffffffffffffffffffff16341015610a47576040517f08c379a0000000000000000000000000000000000000000000000000000000008152600401610a3e90612900565b60405180910390fd5b600c60009054906101000a900473ffffffffffffffffffffffffffffffffffffffff1673ffffffffffffffffffffffffffffffffffffffff166108fc349081150290604051600060405180830381858888f19350505050158015610aaf573d6000803e3d6000fd5b50610aba6008611656565b610acd33610ac8600861166c565b61167a565b610ae0610ada600861166c565b82611848565b5b50565b600a6020528060005260406000206000915054906101000a900460ff1681565b6000806002600084815260200190815260200160002060009054906101000a900473ffffffffffffffffffffffffffffffffffffffff169050600073ffffffffffffffffffffffffffffffffffffffff168173ffffffffffffffffffffffffffffffffffffffff161415610bad576040517f08c379a0000000000000000000000000000000000000000000000000000000008152600401610ba490612980565b60405180910390fd5b80915050919050565b60008073ffffffffffffffffffffffffffffffffffffffff168273ffffffffffffffffffffffffffffffffffffffff161415610c27576040517f08c379a0000000000000000000000000000000000000000000000000000000008152600401610c1e90612960565b60405180910390fd5b600360008373ffffffffffffffffffffffffffffffffffffffff1673ffffffffffffffffffffffffffffffffffffffff168152602001908152602001600020549050919050565b610c7661125b565b73ffffffffffffffffffffffffffffffffffffffff16610c94610cf6565b73ffffffffffffffffffffffffffffffffffffffff1614610cea576040517f08c379a0000000000000000000000000000000000000000000000000000000008152600401610ce190612a20565b60405180910390fd5b610cf460006118bc565b565b6000600760009054906101000a900473ffffffffffffffffffffffffffffffffffffffff16905090565b606060018054610d2f90612d5f565b80601f0160208091040260200160405190810160405280929190818152602001828054610d5b90612d5f565b8015610da85780601f10610d7d57610100808354040283529160200191610da8565b820191906000526020600020905b815481529060010190602001808311610d8b57829003601f168201915b5050505050905090565b610dc4610dbd61125b565b8383611982565b5050565b610dd9610dd361125b565b8361131c565b610e18576040517f08c379a0000000000000000000000000000000000000000000000000000000008152600401610e0f90612aa0565b60405180910390fd5b610e2484848484611aef565b50505050565b600960009054906101000a90046fffffffffffffffffffffffffffffffff1681565b6060610e57826111ef565b610e96576040517f08c379a0000000000000000000000000000000000000000000000000000000008152600401610e8d906129e0565b60405180910390fd5b6000600660008481526020019081526020016000208054610eb690612d5f565b80601f0160208091040260200160405190810160405280929190818152602001828054610ee290612d5f565b8015610f2f5780601f10610f0457610100808354040283529160200191610f2f565b820191906000526020600020905b815481529060010190602001808311610f1257829003601f168201915b505050505090506000610f40611b4b565b9050600081511415610f56578192505050610f99565b600082511115610f8b578082604051602001610f73929190612798565b60405160208183030381529060405292505050610f99565b610f9484611b62565b925050505b919050565b6001600a60008373ffffffffffffffffffffffffffffffffffffffff1673ffffffffffffffffffffffffffffffffffffffff16815260200190815260200160002060006101000a81548160ff02191690831515021790555050565b6000600560008473ffffffffffffffffffffffffffffffffffffffff1673ffffffffffffffffffffffffffffffffffffffff16815260200190815260200160002060008373ffffffffffffffffffffffffffffffffffffffff1673ffffffffffffffffffffffffffffffffffffffff16815260200190815260200160002060009054906101000a900460ff16905092915050565b61109561125b565b73ffffffffffffffffffffffffffffffffffffffff166110b3610cf6565b73ffffffffffffffffffffffffffffffffffffffff1614611109576040517f08c379a000000000000000000000000000000000000000000000000000000000815260040161110090612a20565b60405180910390fd5b600073ffffffffffffffffffffffffffffffffffffffff168173ffffffffffffffffffffffffffffffffffffffff161415611179576040517f08c379a000000000000000000000000000000000000000000000000000000000815260040161117090612880565b60405180910390fd5b611182816118bc565b50565b60007f01ffc9a7000000000000000000000000000000000000000000000000000000007bffffffffffffffffffffffffffffffffffffffffffffffffffffffff1916827bffffffffffffffffffffffffffffffffffffffffffffffffffffffff1916149050919050565b60008073ffffffffffffffffffffffffffffffffffffffff166002600084815260200190815260200160002060009054906101000a900473ffffffffffffffffffffffffffffffffffffffff1673ffffffffffffffffffffffffffffffffffffffff1614159050919050565b600033905090565b816004600083815260200190815260200160002060006101000a81548173ffffffffffffffffffffffffffffffffffffffff021916908373ffffffffffffffffffffffffffffffffffffffff160217905550808273ffffffffffffffffffffffffffffffffffffffff166112d683610b04565b73ffffffffffffffffffffffffffffffffffffffff167f8c5be1e5ebec7d5bd14f71427d1e84f3dd0314c0f7b2291e5b200ac8c7c3b92560405160405180910390a45050565b6000611327826111ef565b611366576040517f08c379a000000000000000000000000000000000000000000000000000000000815260040161135d90612920565b60405180910390fd5b600061137183610b04565b90508073ffffffffffffffffffffffffffffffffffffffff168473ffffffffffffffffffffffffffffffffffffffff1614806113e057508373ffffffffffffffffffffffffffffffffffffffff166113c8846106a9565b73ffffffffffffffffffffffffffffffffffffffff16145b806113f157506113f08185610ff9565b5b91505092915050565b8273ffffffffffffffffffffffffffffffffffffffff1661141a82610b04565b73ffffffffffffffffffffffffffffffffffffffff1614611470576040517f08c379a000000000000000000000000000000000000000000000000000000000815260040161146790612a40565b60405180910390fd5b600073ffffffffffffffffffffffffffffffffffffffff168273ffffffffffffffffffffffffffffffffffffffff1614156114e0576040517f08c379a00000000000000000000000000000000000000000000000000000000081526004016114d7906128c0565b60405180910390fd5b6114eb838383611c09565b6114f6600082611263565b6001600360008573ffffffffffffffffffffffffffffffffffffffff1673ffffffffffffffffffffffffffffffffffffffff16815260200190815260200160002060008282546115469190612c47565b925050819055506001600360008473ffffffffffffffffffffffffffffffffffffffff1673ffffffffffffffffffffffffffffffffffffffff168152602001908152602001600020600082825461159d9190612bc0565b92505081905550816002600083815260200190815260200160002060006101000a81548173ffffffffffffffffffffffffffffffffffffffff021916908373ffffffffffffffffffffffffffffffffffffffff160217905550808273ffffffffffffffffffffffffffffffffffffffff168473ffffffffffffffffffffffffffffffffffffffff167fddf252ad1be2c89b69c2b068fc378daa952ba7f163c4a11628f55a4df523b3ef60405160405180910390a4505050565b6001816000016000828254019250508190555050565b600081600001549050919050565b600073ffffffffffffffffffffffffffffffffffffffff168273ffffffffffffffffffffffffffffffffffffffff1614156116ea576040517f08c379a00000000000000000000000000000000000000000000000000000000081526004016116e1906129c0565b60405180910390fd5b6116f3816111ef565b15611733576040517f08c379a000000000000000000000000000000000000000000000000000000000815260040161172a906128a0565b60405180910390fd5b61173f60008383611c09565b6001600360008473ffffffffffffffffffffffffffffffffffffffff1673ffffffffffffffffffffffffffffffffffffffff168152602001908152602001600020600082825461178f9190612bc0565b92505081905550816002600083815260200190815260200160002060006101000a81548173ffffffffffffffffffffffffffffffffffffffff021916908373ffffffffffffffffffffffffffffffffffffffff160217905550808273ffffffffffffffffffffffffffffffffffffffff16600073ffffffffffffffffffffffffffffffffffffffff167fddf252ad1be2c89b69c2b068fc378daa952ba7f163c4a11628f55a4df523b3ef60405160405180910390a45050565b611851826111ef565b611890576040517f08c379a0000000000000000000000000000000000000000000000000000000008152600401611887906129a0565b60405180910390fd5b806006600084815260200190815260200160002090805190602001906118b7929190611f65565b505050565b6000600760009054906101000a900473ffffffffffffffffffffffffffffffffffffffff16905081600760006101000a81548173ffffffffffffffffffffffffffffffffffffffff021916908373ffffffffffffffffffffffffffffffffffffffff1602179055508173ffffffffffffffffffffffffffffffffffffffff168173ffffffffffffffffffffffffffffffffffffffff167f8be0079c531659141344cd1fd0a4f28419497f9722a3daafe3b4186f6b6457e060405160405180910390a35050565b8173ffffffffffffffffffffffffffffffffffffffff168373ffffffffffffffffffffffffffffffffffffffff1614156119f1576040517f08c379a00000000000000000000000000000000000000000000000000000000081526004016119e8906128e0565b60405180910390fd5b80600560008573ffffffffffffffffffffffffffffffffffffffff1673ffffffffffffffffffffffffffffffffffffffff16815260200190815260200160002060008473ffffffffffffffffffffffffffffffffffffffff1673ffffffffffffffffffffffffffffffffffffffff16815260200190815260200160002060006101000a81548160ff0219169083151502179055508173ffffffffffffffffffffffffffffffffffffffff168373ffffffffffffffffffffffffffffffffffffffff167f17307eab39ab6107e8899845ad3d59bd9653f200f220920489ca2b5937696c3183604051611ae29190612823565b60405180910390a3505050565b611afa8484846113fa565b611b0684848484611c0e565b611b45576040517f08c379a0000000000000000000000000000000000000000000000000000000008152600401611b3c90612860565b60405180910390fd5b50505050565b606060405180602001604052806000815250905090565b6060611b6d826111ef565b611bac576040517f08c379a0000000000000000000000000000000000000000000000000000000008152600401611ba390612a60565b60405180910390fd5b6000611bb6611b4b565b90506000815111611bd65760405180602001604052806000815250611c01565b80611be084611da5565b604051602001611bf1929190612798565b6040516020818303038152906040525b915050919050565b505050565b6000611c2f8473ffffffffffffffffffffffffffffffffffffffff16611f52565b15611d98578373ffffffffffffffffffffffffffffffffffffffff1663150b7a02611c5861125b565b8786866040518563ffffffff1660e01b8152600401611c7a94939291906127d7565b602060405180830381600087803b158015611c9457600080fd5b505af1925050508015611cc557506040513d601f19601f82011682018060405250810190611cc29190612364565b60015b611d48573d8060008114611cf5576040519150601f19603f3d011682016040523d82523d6000602084013e611cfa565b606091505b50600081511415611d40576040517f08c379a0000000000000000000000000000000000000000000000000000000008152600401611d3790612860565b60405180910390fd5b805181602001fd5b63150b7a0260e01b7bffffffffffffffffffffffffffffffffffffffffffffffffffffffff1916817bffffffffffffffffffffffffffffffffffffffffffffffffffffffff191614915050611d9d565b600190505b949350505050565b60606000821415611ded576040518060400160405280600181526020017f30000000000000000000000000000000000000000000000000000000000000008152509050611f4d565b600082905060005b60008214611e1f578080611e0890612dc2565b915050600a82611e189190612c16565b9150611df5565b60008167ffffffffffffffff811115611e61577f4e487b7100000000000000000000000000000000000000000000000000000000600052604160045260246000fd5b6040519080825280601f01601f191660200182016040528015611e935781602001600182028036833780820191505090505b5090505b60008514611f4657600182611eac9190612c47565b9150600a85611ebb9190612e0b565b6030611ec79190612bc0565b60f81b818381518110611f03577f4e487b7100000000000000000000000000000000000000000000000000000000600052603260045260246000fd5b60200101907effffffffffffffffffffffffffffffffffffffffffffffffffffffffffffff1916908160001a905350600a85611f3f9190612c16565b9450611e97565b8093505050505b919050565b600080823b905060008111915050919050565b828054611f7190612d5f565b90600052602060002090601f016020900481019282611f935760008555611fda565b82601f10611fac57805160ff1916838001178555611fda565b82800160010185558215611fda579182015b82811115611fd9578251825591602001919060010190611fbe565b5b509050611fe79190611feb565b5090565b5b80821115612004576000816000905550600101611fec565b5090565b600061201b61201684612b1b565b612af6565b90508281526020810184848401111561203357600080fd5b61203e848285612d1d565b509392505050565b600061205961205484612b4c565b612af6565b90508281526020810184848401111561207157600080fd5b61207c848285612d1d565b509392505050565b6000813590506120938161344e565b92915050565b6000813590506120a881613465565b92915050565b6000813590506120bd8161347c565b92915050565b6000813590506120d281613493565b92915050565b6000815190506120e781613493565b92915050565b600082601f8301126120fe57600080fd5b813561210e848260208601612008565b91505092915050565b600082601f83011261212857600080fd5b8135612138848260208601612046565b91505092915050565b600081359050612150816134aa565b92915050565b600081359050612165816134c1565b92915050565b60006020828403121561217d57600080fd5b600061218b84828501612084565b91505092915050565b6000602082840312156121a657600080fd5b60006121b484828501612099565b91505092915050565b600080604083850312156121d057600080fd5b60006121de85828601612084565b92505060206121ef85828601612084565b9150509250929050565b60008060006060848603121561220e57600080fd5b600061221c86828701612084565b935050602061222d86828701612084565b925050604061223e86828701612156565b9150509250925092565b6000806000806080858703121561225e57600080fd5b600061226c87828801612084565b945050602061227d87828801612084565b935050604061228e87828801612156565b925050606085013567ffffffffffffffff8111156122ab57600080fd5b6122b7878288016120ed565b91505092959194509250565b600080604083850312156122d657600080fd5b60006122e485828601612084565b92505060206122f5858286016120ae565b9150509250929050565b6000806040838503121561231257600080fd5b600061232085828601612084565b925050602061233185828601612156565b9150509250929050565b60006020828403121561234d57600080fd5b600061235b848285016120c3565b91505092915050565b60006020828403121561237657600080fd5b6000612384848285016120d8565b91505092915050565b60006020828403121561239f57600080fd5b600082013567ffffffffffffffff8111156123b957600080fd5b6123c584828501612117565b91505092915050565b6000602082840312156123e057600080fd5b60006123ee84828501612141565b91505092915050565b60006020828403121561240957600080fd5b600061241784828501612156565b91505092915050565b61242981612c7b565b82525050565b61243881612c9f565b82525050565b600061244982612b7d565b6124538185612b93565b9350612463818560208601612d2c565b61246c81612ef8565b840191505092915050565b600061248282612b88565b61248c8185612ba4565b935061249c818560208601612d2c565b6124a581612ef8565b840191505092915050565b60006124bb82612b88565b6124c58185612bb5565b93506124d5818560208601612d2c565b80840191505092915050565b60006124ee603283612ba4565b91506124f982612f09565b604082019050919050565b6000612511602683612ba4565b915061251c82612f58565b604082019050919050565b6000612534601c83612ba4565b915061253f82612fa7565b602082019050919050565b6000612557602483612ba4565b915061256282612fd0565b604082019050919050565b600061257a601983612ba4565b91506125858261301f565b602082019050919050565b600061259d602c83612ba4565b91506125a882613048565b604082019050919050565b60006125c0602c83612ba4565b91506125cb82613097565b604082019050919050565b60006125e3603883612ba4565b91506125ee826130e6565b604082019050919050565b6000612606602a83612ba4565b915061261182613135565b604082019050919050565b6000612629602983612ba4565b915061263482613184565b604082019050919050565b600061264c602e83612ba4565b9150612657826131d3565b604082019050919050565b600061266f602083612ba4565b915061267a82613222565b602082019050919050565b6000612692603183612ba4565b915061269d8261324b565b604082019050919050565b60006126b5602c83612ba4565b91506126c08261329a565b604082019050919050565b60006126d8602083612ba4565b91506126e3826132e9565b602082019050919050565b60006126fb602983612ba4565b915061270682613312565b604082019050919050565b600061271e602f83612ba4565b915061272982613361565b604082019050919050565b6000612741602183612ba4565b915061274c826133b0565b604082019050919050565b6000612764603183612ba4565b915061276f826133ff565b604082019050919050565b61278381612cd7565b82525050565b61279281612d13565b82525050565b60006127a482856124b0565b91506127b082846124b0565b91508190509392505050565b60006020820190506127d16000830184612420565b92915050565b60006080820190506127ec6000830187612420565b6127f96020830186612420565b6128066040830185612789565b8181036060830152612818818461243e565b905095945050505050565b6000602082019050612838600083018461242f565b92915050565b600060208201905081810360008301526128588184612477565b905092915050565b60006020820190508181036000830152612879816124e1565b9050919050565b6000602082019050818103600083015261289981612504565b9050919050565b600060208201905081810360008301526128b981612527565b9050919050565b600060208201905081810360008301526128d98161254a565b9050919050565b600060208201905081810360008301526128f98161256d565b9050919050565b6000602082019050818103600083015261291981612590565b9050919050565b60006020820190508181036000830152612939816125b3565b9050919050565b60006020820190508181036000830152612959816125d6565b9050919050565b60006020820190508181036000830152612979816125f9565b9050919050565b600060208201905081810360008301526129998161261c565b9050919050565b600060208201905081810360008301526129b98161263f565b9050919050565b600060208201905081810360008301526129d981612662565b9050919050565b600060208201905081810360008301526129f981612685565b9050919050565b60006020820190508181036000830152612a19816126a8565b9050919050565b60006020820190508181036000830152612a39816126cb565b9050919050565b60006020820190508181036000830152612a59816126ee565b9050919050565b60006020820190508181036000830152612a7981612711565b9050919050565b60006020820190508181036000830152612a9981612734565b9050919050565b60006020820190508181036000830152612ab981612757565b9050919050565b6000602082019050612ad5600083018461277a565b92915050565b6000602082019050612af06000830184612789565b92915050565b6000612b00612b11565b9050612b0c8282612d91565b919050565b6000604051905090565b600067ffffffffffffffff821115612b3657612b35612ec9565b5b612b3f82612ef8565b9050602081019050919050565b600067ffffffffffffffff821115612b6757612b66612ec9565b5b612b7082612ef8565b9050602081019050919050565b600081519050919050565b600081519050919050565b600082825260208201905092915050565b600082825260208201905092915050565b600081905092915050565b6000612bcb82612d13565b9150612bd683612d13565b9250827fffffffffffffffffffffffffffffffffffffffffffffffffffffffffffffffff03821115612c0b57612c0a612e3c565b5b828201905092915050565b6000612c2182612d13565b9150612c2c83612d13565b925082612c3c57612c3b612e6b565b5b828204905092915050565b6000612c5282612d13565b9150612c5d83612d13565b925082821015612c7057612c6f612e3c565b5b828203905092915050565b6000612c8682612cf3565b9050919050565b6000612c9882612cf3565b9050919050565b60008115159050919050565b60007fffffffff0000000000000000000000000000000000000000000000000000000082169050919050565b60006fffffffffffffffffffffffffffffffff82169050919050565b600073ffffffffffffffffffffffffffffffffffffffff82169050919050565b6000819050919050565b82818337600083830152505050565b60005b83811015612d4a578082015181840152602081019050612d2f565b83811115612d59576000848401525b50505050565b60006002820490506001821680612d7757607f821691505b60208210811415612d8b57612d8a612e9a565b5b50919050565b612d9a82612ef8565b810181811067ffffffffffffffff82111715612db957612db8612ec9565b5b80604052505050565b6000612dcd82612d13565b91507fffffffffffffffffffffffffffffffffffffffffffffffffffffffffffffffff821415612e0057612dff612e3c565b5b600182019050919050565b6000612e1682612d13565b9150612e2183612d13565b925082612e3157612e30612e6b565b5b828206905092915050565b7f4e487b7100000000000000000000000000000000000000000000000000000000600052601160045260246000fd5b7f4e487b7100000000000000000000000000000000000000000000000000000000600052601260045260246000fd5b7f4e487b7100000000000000000000000000000000000000000000000000000000600052602260045260246000fd5b7f4e487b7100000000000000000000000000000000000000000000000000000000600052604160045260246000fd5b6000601f19601f8301169050919050565b7f4552433732313a207472616e7366657220746f206e6f6e20455243373231526560008201527f63656976657220696d706c656d656e7465720000000000000000000000000000602082015250565b7f4f776e61626c653a206e6577206f776e657220697320746865207a65726f206160008201527f6464726573730000000000000000000000000000000000000000000000000000602082015250565b7f4552433732313a20746f6b656e20616c7265616479206d696e74656400000000600082015250565b7f4552433732313a207472616e7366657220746f20746865207a65726f2061646460008201527f7265737300000000000000000000000000000000000000000000000000000000602082015250565b7f4552433732313a20617070726f766520746f2063616c6c657200000000000000600082015250565b7f546865207072696365206d757374206265206174206c6561737420746865206c60008201527f697374696e672070726963650000000000000000000000000000000000000000602082015250565b7f4552433732313a206f70657261746f7220717565727920666f72206e6f6e657860008201527f697374656e7420746f6b656e0000000000000000000000000000000000000000602082015250565b7f4552433732313a20617070726f76652063616c6c6572206973206e6f74206f7760008201527f6e6572206e6f7220617070726f76656420666f7220616c6c0000000000000000602082015250565b7f4552433732313a2062616c616e636520717565727920666f7220746865207a6560008201527f726f206164647265737300000000000000000000000000000000000000000000602082015250565b7f4552433732313a206f776e657220717565727920666f72206e6f6e657869737460008201527f656e7420746f6b656e0000000000000000000000000000000000000000000000602082015250565b7f45524337323155524953746f726167653a2055524920736574206f66206e6f6e60008201527f6578697374656e7420746f6b656e000000000000000000000000000000000000602082015250565b7f4552433732313a206d696e7420746f20746865207a65726f2061646472657373600082015250565b7f45524337323155524953746f726167653a2055524920717565727920666f722060008201527f6e6f6e6578697374656e7420746f6b656e000000000000000000000000000000602082015250565b7f4552433732313a20617070726f76656420717565727920666f72206e6f6e657860008201527f697374656e7420746f6b656e0000000000000000000000000000000000000000602082015250565b7f4f776e61626c653a2063616c6c6572206973206e6f7420746865206f776e6572600082015250565b7f4552433732313a207472616e73666572206f6620746f6b656e2074686174206960008201527f73206e6f74206f776e0000000000000000000000000000000000000000000000602082015250565b7f4552433732314d657461646174613a2055524920717565727920666f72206e6f60008201527f6e6578697374656e7420746f6b656e0000000000000000000000000000000000602082015250565b7f4552433732313a20617070726f76616c20746f2063757272656e74206f776e6560008201527f7200000000000000000000000000000000000000000000000000000000000000602082015250565b7f4552433732313a207472616e736665722063616c6c6572206973206e6f74206f60008201527f776e6572206e6f7220617070726f766564000000000000000000000000000000602082015250565b61345781612c7b565b811461346257600080fd5b50565b61346e81612c8d565b811461347957600080fd5b50565b61348581612c9f565b811461349057600080fd5b50565b61349c81612cab565b81146134a757600080fd5b50565b6134b381612cd7565b81146134be57600080fd5b50565b6134ca81612d13565b81146134d557600080fd5b5056fea2646970667358221220ee68ceb03a3e0a0cb7e8513f6f07fb3adb1d74b7756ac5303f1a1392014f3f2c64736f6c63430008040033",
  "immutableReferences": {},
  "source": "//SPDX-License-Identifier:MIT\r\npragma solidity ^0.8.4;\r\n\r\nimport \"@openzeppelin/contracts/token/ERC721/ERC721.sol\";\r\nimport \"@openzeppelin/contracts/token/ERC721/extensions/ERC721URIStorage.sol\";\r\nimport \"@openzeppelin/contracts/utils/Counters.sol\";\r\nimport \"@openzeppelin/contracts/access/Ownable.sol\";\r\n\r\n/*\r\nimport \"./@rarible/royalties/contracts/LibPart.sol\";\r\nimport \"./@rarible/royalties/contracts/impl/RoyaltiesV2Impl.sol\";\r\nimport \"./@rarible/royalties/contracts/LibRoyaltiesV2.sol\";\r\n*/\r\n\r\n/**\r\n *  @dev Implementacin de https://eips.ethereum.org/EIPS/eip-721[ERC721]\r\n    Desarrollado por Emmanuel Martnez.\r\n\r\n                   \r\n        \r\n                             \r\n                               \r\n                          \r\n               \r\n                                          \r\n                                                                      \r\n                                                                                      \r\n                                                                                               \r\n\r\n */\r\n\r\ncontract TechpropheciesNFTFactory is ERC721URIStorage, Ownable{\r\n\r\n\r\n    using Counters for Counters.Counter;\r\n    Counters.Counter private _tokenIds;\r\n\r\n    uint128 public listingPrice;\r\n\r\n    mapping (address => bool) public couponOwner;\r\n    address contractOwner;\r\n    address payable beneficiary;\r\n    \r\n\r\n    constructor() ERC721(\"Tech Prophecies\",\"TP\"){\r\n                contractOwner = msg.sender;\r\n                couponOwner[msg.sender] = true;\r\n    }\r\n\r\n    function createToken(string memory tokenURI) public payable  {\r\n\r\n        if (couponOwner[msg.sender] == true){   \r\n                _tokenIds.increment();    \r\n                _mint(msg.sender, _tokenIds.current());\r\n                _setTokenURI(_tokenIds.current(), tokenURI);\r\n                return;\r\n        }\r\n\r\n        require(msg.value >= listingPrice, \"The price must be at least the listing price\");\r\n        beneficiary.transfer(msg.value);\r\n        _tokenIds.increment();    \r\n        _mint(msg.sender, _tokenIds.current());\r\n        _setTokenURI(_tokenIds.current(), tokenURI);\r\n        return;\r\n\r\n    }\r\n\r\n    function setListingPrice(uint128 _listPrice) external {\r\n\r\n            listingPrice = _listPrice;\r\n\r\n    }\r\n\r\n    function setBeneficiary(address payable _beneficiary) external {\r\n\r\n            beneficiary = _beneficiary;\r\n\r\n    }\r\n\r\n    function setCouponOwner(address _couponOwner) external {\r\n\r\n            couponOwner[_couponOwner] = true;\r\n\r\n    }\r\n\r\n    /*\r\n\r\n    function _setRoyalties(uint _tokenId, address payable _royaltiesReceipientAddress, uint96 _percentageBasisPoints) public onlyOwner {\r\n        LibPart.Part[] memory _royalties = new LibPart.Part[](1);\r\n        _royalties[0].value = _percentageBasisPoints;\r\n        _royalties[0].account = _royaltiesReceipientAddress;\r\n        _saveRoyalties(_tokenId, _royalties);\r\n    }\r\n\r\n    function supportsInterface(bytes4 interfaceId) public view virtual override(ERC721) returns (bool) {\r\n        if(interfaceId == LibRoyaltiesV2._INTERFACE_ID_ROYALTIES) {\r\n            return true;\r\n        }\r\n        return super.supportsInterface(interfaceId);\r\n    }\r\n\r\n    */\r\n\r\n}\r\n",
  "sourcePath": "E:\\Chamba\\Moises Sanabria\\techprophecies\\contracts\\TechpropheciesNFTFactory.sol",
  "compiler": {
    "name": "solc",
    "version": "0.8.4+commit.c7e474f2.Emscripten.clang"
  },
  "schemaVersion": "3.4.3",
  "updatedAt": "2022-02-04T23:52:48.702Z",
  "networkType": "ethereum",
  "devdoc": {
    "details": "Implementacin de https://eips.ethereum.org/EIPS/eip-721[ERC721] Desarrollado por Emmanuel Martnez.                                                                                                                                                                                                                                                                                                                                                                                                            ",
    "kind": "dev",
    "methods": {
      "approve(address,uint256)": {
        "details": "See {IERC721-approve}."
      },
      "balanceOf(address)": {
        "details": "See {IERC721-balanceOf}."
      },
      "getApproved(uint256)": {
        "details": "See {IERC721-getApproved}."
      },
      "isApprovedForAll(address,address)": {
        "details": "See {IERC721-isApprovedForAll}."
      },
      "name()": {
        "details": "See {IERC721Metadata-name}."
      },
      "owner()": {
        "details": "Returns the address of the current owner."
      },
      "ownerOf(uint256)": {
        "details": "See {IERC721-ownerOf}."
      },
      "renounceOwnership()": {
        "details": "Leaves the contract without owner. It will not be possible to call `onlyOwner` functions anymore. Can only be called by the current owner. NOTE: Renouncing ownership will leave the contract without an owner, thereby removing any functionality that is only available to the owner."
      },
      "safeTransferFrom(address,address,uint256)": {
        "details": "See {IERC721-safeTransferFrom}."
      },
      "safeTransferFrom(address,address,uint256,bytes)": {
        "details": "See {IERC721-safeTransferFrom}."
      },
      "setApprovalForAll(address,bool)": {
        "details": "See {IERC721-setApprovalForAll}."
      },
      "supportsInterface(bytes4)": {
        "details": "See {IERC165-supportsInterface}."
      },
      "symbol()": {
        "details": "See {IERC721Metadata-symbol}."
      },
      "tokenURI(uint256)": {
        "details": "See {IERC721Metadata-tokenURI}."
      },
      "transferFrom(address,address,uint256)": {
        "details": "See {IERC721-transferFrom}."
      },
      "transferOwnership(address)": {
        "details": "Transfers ownership of the contract to a new account (`newOwner`). Can only be called by the current owner."
      }
    },
    "version": 1
  },
  "userdoc": {
    "kind": "user",
    "methods": {},
    "version": 1
  }
}